{
  "address": "0xDF80687A8B47b1f745C5c0b60EaC2cbd9C1A3e40",
  "abi": [
    {
      "inputs": [
        {
          "internalType": "string",
          "name": "_name",
          "type": "string"
        },
        {
          "internalType": "string",
          "name": "_symbol",
          "type": "string"
        },
        {
          "internalType": "contract WENS",
          "name": "_ens",
          "type": "address"
        },
        {
          "internalType": "bytes32",
          "name": "_baseNode",
          "type": "bytes32"
        },
        {
          "internalType": "string",
          "name": "_baseName",
          "type": "string"
        }
      ],
      "stateMutability": "nonpayable",
      "type": "constructor"
    },
    {
      "anonymous": false,
      "inputs": [
        {
          "indexed": true,
          "internalType": "address",
          "name": "owner",
          "type": "address"
        },
        {
          "indexed": true,
          "internalType": "address",
          "name": "approved",
          "type": "address"
        },
        {
          "indexed": true,
          "internalType": "uint256",
          "name": "tokenId",
          "type": "uint256"
        }
      ],
      "name": "Approval",
      "type": "event"
    },
    {
      "anonymous": false,
      "inputs": [
        {
          "indexed": true,
          "internalType": "address",
          "name": "owner",
          "type": "address"
        },
        {
          "indexed": true,
          "internalType": "address",
          "name": "operator",
          "type": "address"
        },
        {
          "indexed": false,
          "internalType": "bool",
          "name": "approved",
          "type": "bool"
        }
      ],
      "name": "ApprovalForAll",
      "type": "event"
    },
    {
      "anonymous": false,
      "inputs": [
        {
          "indexed": true,
          "internalType": "address",
          "name": "controller",
          "type": "address"
        }
      ],
      "name": "ControllerAdded",
      "type": "event"
    },
    {
      "anonymous": false,
      "inputs": [
        {
          "indexed": true,
          "internalType": "address",
          "name": "controller",
          "type": "address"
        }
      ],
      "name": "ControllerRemoved",
      "type": "event"
    },
    {
      "anonymous": false,
      "inputs": [
        {
          "indexed": true,
          "internalType": "uint256",
          "name": "id",
          "type": "uint256"
        },
        {
          "indexed": true,
          "internalType": "address",
          "name": "owner",
          "type": "address"
        },
        {
          "indexed": false,
          "internalType": "uint256",
          "name": "expires",
          "type": "uint256"
        }
      ],
      "name": "NameMigrated",
      "type": "event"
    },
    {
      "anonymous": false,
      "inputs": [
        {
          "indexed": true,
          "internalType": "uint256",
          "name": "id",
          "type": "uint256"
        },
        {
          "indexed": true,
          "internalType": "address",
          "name": "owner",
          "type": "address"
        },
        {
          "indexed": false,
          "internalType": "uint256",
          "name": "expires",
          "type": "uint256"
        }
      ],
      "name": "NameRegistered",
      "type": "event"
    },
    {
      "anonymous": false,
      "inputs": [
        {
          "indexed": true,
          "internalType": "uint256",
          "name": "id",
          "type": "uint256"
        },
        {
          "indexed": false,
          "internalType": "uint256",
          "name": "expires",
          "type": "uint256"
        }
      ],
      "name": "NameRenewed",
      "type": "event"
    },
    {
      "anonymous": false,
      "inputs": [
        {
          "indexed": true,
          "internalType": "address",
          "name": "previousOwner",
          "type": "address"
        },
        {
          "indexed": true,
          "internalType": "address",
          "name": "newOwner",
          "type": "address"
        }
      ],
      "name": "OwnershipTransferred",
      "type": "event"
    },
    {
      "anonymous": false,
      "inputs": [
        {
          "indexed": true,
          "internalType": "address",
          "name": "from",
          "type": "address"
        },
        {
          "indexed": true,
          "internalType": "address",
          "name": "to",
          "type": "address"
        },
        {
          "indexed": true,
          "internalType": "uint256",
          "name": "tokenId",
          "type": "uint256"
        }
      ],
      "name": "Transfer",
      "type": "event"
    },
    {
      "inputs": [],
      "name": "GRACE_PERIOD",
      "outputs": [
        {
          "internalType": "uint256",
          "name": "",
          "type": "uint256"
        }
      ],
      "stateMutability": "view",
      "type": "function"
    },
    {
      "inputs": [
        {
          "internalType": "address",
          "name": "controller",
          "type": "address"
        }
      ],
      "name": "addController",
      "outputs": [],
      "stateMutability": "nonpayable",
      "type": "function"
    },
    {
      "inputs": [
        {
          "internalType": "address",
          "name": "to",
          "type": "address"
        },
        {
          "internalType": "uint256",
          "name": "tokenId",
          "type": "uint256"
        }
      ],
      "name": "approve",
      "outputs": [],
      "stateMutability": "nonpayable",
      "type": "function"
    },
    {
      "inputs": [
        {
          "internalType": "uint256",
          "name": "id",
          "type": "uint256"
        }
      ],
      "name": "available",
      "outputs": [
        {
          "internalType": "bool",
          "name": "",
          "type": "bool"
        }
      ],
      "stateMutability": "view",
      "type": "function"
    },
    {
      "inputs": [
        {
          "internalType": "address",
          "name": "owner",
          "type": "address"
        }
      ],
      "name": "balanceOf",
      "outputs": [
        {
          "internalType": "uint256",
          "name": "",
          "type": "uint256"
        }
      ],
      "stateMutability": "view",
      "type": "function"
    },
    {
      "inputs": [],
      "name": "baseName",
      "outputs": [
        {
          "internalType": "string",
          "name": "",
          "type": "string"
        }
      ],
      "stateMutability": "view",
      "type": "function"
    },
    {
      "inputs": [],
      "name": "baseNode",
      "outputs": [
        {
          "internalType": "bytes32",
          "name": "",
          "type": "bytes32"
        }
      ],
      "stateMutability": "view",
      "type": "function"
    },
    {
      "inputs": [
        {
          "internalType": "address",
          "name": "",
          "type": "address"
        }
      ],
      "name": "controllers",
      "outputs": [
        {
          "internalType": "bool",
          "name": "",
          "type": "bool"
        }
      ],
      "stateMutability": "view",
      "type": "function"
    },
    {
      "inputs": [],
      "name": "ens",
      "outputs": [
        {
          "internalType": "contract WENS",
          "name": "",
          "type": "address"
        }
      ],
      "stateMutability": "view",
      "type": "function"
    },
    {
      "inputs": [
        {
          "internalType": "uint256",
          "name": "tokenId",
          "type": "uint256"
        }
      ],
      "name": "getApproved",
      "outputs": [
        {
          "internalType": "address",
          "name": "",
          "type": "address"
        }
      ],
      "stateMutability": "view",
      "type": "function"
    },
    {
      "inputs": [
        {
          "internalType": "uint256",
          "name": "tokenId",
          "type": "uint256"
        }
      ],
      "name": "getName",
      "outputs": [
        {
          "internalType": "string",
          "name": "",
          "type": "string"
        }
      ],
      "stateMutability": "view",
      "type": "function"
    },
    {
      "inputs": [
        {
          "internalType": "address",
          "name": "owner",
          "type": "address"
        },
        {
          "internalType": "address",
          "name": "operator",
          "type": "address"
        }
      ],
      "name": "isApprovedForAll",
      "outputs": [
        {
          "internalType": "bool",
          "name": "",
          "type": "bool"
        }
      ],
      "stateMutability": "view",
      "type": "function"
    },
    {
      "inputs": [],
      "name": "name",
      "outputs": [
        {
          "internalType": "string",
          "name": "",
          "type": "string"
        }
      ],
      "stateMutability": "view",
      "type": "function"
    },
    {
      "inputs": [
        {
          "internalType": "uint256",
          "name": "id",
          "type": "uint256"
        }
      ],
      "name": "nameExpires",
      "outputs": [
        {
          "internalType": "uint256",
          "name": "",
          "type": "uint256"
        }
      ],
      "stateMutability": "view",
      "type": "function"
    },
    {
      "inputs": [],
      "name": "owner",
      "outputs": [
        {
          "internalType": "address",
          "name": "",
          "type": "address"
        }
      ],
      "stateMutability": "view",
      "type": "function"
    },
    {
      "inputs": [
        {
          "internalType": "uint256",
          "name": "tokenId",
          "type": "uint256"
        }
      ],
      "name": "ownerOf",
      "outputs": [
        {
          "internalType": "address",
          "name": "",
          "type": "address"
        }
      ],
      "stateMutability": "view",
      "type": "function"
    },
    {
      "inputs": [
        {
          "internalType": "uint256",
          "name": "id",
          "type": "uint256"
        },
        {
          "internalType": "address",
          "name": "owner",
          "type": "address"
        }
      ],
      "name": "reclaim",
      "outputs": [],
      "stateMutability": "nonpayable",
      "type": "function"
    },
    {
      "inputs": [
        {
          "internalType": "uint256",
          "name": "id",
          "type": "uint256"
        },
        {
          "internalType": "address",
          "name": "owner",
          "type": "address"
        },
        {
          "internalType": "uint256",
          "name": "duration",
          "type": "uint256"
        }
      ],
      "name": "register",
      "outputs": [
        {
          "internalType": "uint256",
          "name": "",
          "type": "uint256"
        }
      ],
      "stateMutability": "nonpayable",
      "type": "function"
    },
    {
      "inputs": [
        {
          "internalType": "uint256",
          "name": "id",
          "type": "uint256"
        },
        {
          "internalType": "address",
          "name": "owner",
          "type": "address"
        },
        {
          "internalType": "uint256",
          "name": "duration",
          "type": "uint256"
        }
      ],
      "name": "registerOnly",
      "outputs": [
        {
          "internalType": "uint256",
          "name": "",
          "type": "uint256"
        }
      ],
      "stateMutability": "nonpayable",
      "type": "function"
    },
    {
      "inputs": [
        {
          "internalType": "address",
          "name": "controller",
          "type": "address"
        }
      ],
      "name": "removeController",
      "outputs": [],
      "stateMutability": "nonpayable",
      "type": "function"
    },
    {
      "inputs": [
        {
          "internalType": "uint256",
          "name": "id",
          "type": "uint256"
        },
        {
          "internalType": "uint256",
          "name": "duration",
          "type": "uint256"
        }
      ],
      "name": "renew",
      "outputs": [
        {
          "internalType": "uint256",
          "name": "",
          "type": "uint256"
        }
      ],
      "stateMutability": "nonpayable",
      "type": "function"
    },
    {
      "inputs": [],
      "name": "renounceOwnership",
      "outputs": [],
      "stateMutability": "nonpayable",
      "type": "function"
    },
    {
      "inputs": [
        {
          "internalType": "address",
          "name": "from",
          "type": "address"
        },
        {
          "internalType": "address",
          "name": "to",
          "type": "address"
        },
        {
          "internalType": "uint256",
          "name": "tokenId",
          "type": "uint256"
        }
      ],
      "name": "safeTransferFrom",
      "outputs": [],
      "stateMutability": "nonpayable",
      "type": "function"
    },
    {
      "inputs": [
        {
          "internalType": "address",
          "name": "from",
          "type": "address"
        },
        {
          "internalType": "address",
          "name": "to",
          "type": "address"
        },
        {
          "internalType": "uint256",
          "name": "tokenId",
          "type": "uint256"
        },
        {
          "internalType": "bytes",
          "name": "_data",
          "type": "bytes"
        }
      ],
      "name": "safeTransferFrom",
      "outputs": [],
      "stateMutability": "nonpayable",
      "type": "function"
    },
    {
      "inputs": [
        {
          "internalType": "address",
          "name": "operator",
          "type": "address"
        },
        {
          "internalType": "bool",
          "name": "approved",
          "type": "bool"
        }
      ],
      "name": "setApprovalForAll",
      "outputs": [],
      "stateMutability": "nonpayable",
      "type": "function"
    },
    {
      "inputs": [
        {
          "internalType": "address",
          "name": "resolver",
          "type": "address"
        }
      ],
      "name": "setResolver",
      "outputs": [],
      "stateMutability": "nonpayable",
      "type": "function"
    },
    {
      "inputs": [
        {
          "internalType": "contract TokenURIBuilder",
          "name": "builder",
          "type": "address"
        }
      ],
      "name": "setTokenURIBuilder",
      "outputs": [],
      "stateMutability": "nonpayable",
      "type": "function"
    },
    {
      "inputs": [
        {
          "internalType": "bytes4",
          "name": "interfaceID",
          "type": "bytes4"
        }
      ],
      "name": "supportsInterface",
      "outputs": [
        {
          "internalType": "bool",
          "name": "",
          "type": "bool"
        }
      ],
      "stateMutability": "view",
      "type": "function"
    },
    {
      "inputs": [],
      "name": "symbol",
      "outputs": [
        {
          "internalType": "string",
          "name": "",
          "type": "string"
        }
      ],
      "stateMutability": "view",
      "type": "function"
    },
    {
      "inputs": [
        {
          "internalType": "uint256",
          "name": "index",
          "type": "uint256"
        }
      ],
      "name": "tokenByIndex",
      "outputs": [
        {
          "internalType": "uint256",
          "name": "",
          "type": "uint256"
        }
      ],
      "stateMutability": "view",
      "type": "function"
    },
    {
      "inputs": [
        {
          "internalType": "address",
          "name": "owner",
          "type": "address"
        },
        {
          "internalType": "uint256",
          "name": "index",
          "type": "uint256"
        }
      ],
      "name": "tokenOfOwnerByIndex",
      "outputs": [
        {
          "internalType": "uint256",
          "name": "",
          "type": "uint256"
        }
      ],
      "stateMutability": "view",
      "type": "function"
    },
    {
      "inputs": [
        {
          "internalType": "uint256",
          "name": "tokenId",
          "type": "uint256"
        }
      ],
      "name": "tokenURI",
      "outputs": [
        {
          "internalType": "string",
          "name": "",
          "type": "string"
        }
      ],
      "stateMutability": "view",
      "type": "function"
    },
    {
      "inputs": [],
      "name": "totalSupply",
      "outputs": [
        {
          "internalType": "uint256",
          "name": "",
          "type": "uint256"
        }
      ],
      "stateMutability": "view",
      "type": "function"
    },
    {
      "inputs": [
        {
          "internalType": "address",
          "name": "from",
          "type": "address"
        },
        {
          "internalType": "address",
          "name": "to",
          "type": "address"
        },
        {
          "internalType": "uint256",
          "name": "tokenId",
          "type": "uint256"
        }
      ],
      "name": "transferFrom",
      "outputs": [],
      "stateMutability": "nonpayable",
      "type": "function"
    },
    {
      "inputs": [
        {
          "internalType": "address",
          "name": "newOwner",
          "type": "address"
        }
      ],
      "name": "transferOwnership",
      "outputs": [],
      "stateMutability": "nonpayable",
      "type": "function"
    }
  ],
  "transactionHash": "0x054a3fe3e720776c8d304e6f455860126c8996f35c07b1cdadfe2ca5a25b36df",
  "args": [
    "buildlerdao name service",
    "BUILDLERDAO",
    "0x3BfE135231099832B1379Eac281aB44d33914eb6",
    "0xf4f740d56f576b63f57a508b18a60c24ab864b4afd50efaaeecca234babce5f5",
    "buidlerdao"
  ],
  "solcInputHash": "902db3b48db8cf37b48a2125e6b3980f",
  "bytecode": "0x60806040523480156200001157600080fd5b5060405162002d3f38038062002d3f8339810160408190526200003491620001b0565b848462000041336200009b565b60016200004f8382620002fc565b5060026200005e8282620002fc565b5050600b80546001600160a01b0319166001600160a01b03861617905550600c82905560106200008f8282620002fc565b505050505050620003c8565b600080546001600160a01b038381166001600160a01b0319831681178455604051919092169283917f8be0079c531659141344cd1fd0a4f28419497f9722a3daafe3b4186f6b6457e09190a35050565b634e487b7160e01b600052604160045260246000fd5b600082601f8301126200011357600080fd5b81516001600160401b0380821115620001305762000130620000eb565b604051601f8301601f19908116603f011681019082821181831017156200015b576200015b620000eb565b816040528381526020925086838588010111156200017857600080fd5b600091505b838210156200019c57858201830151818301840152908201906200017d565b600093810190920192909252949350505050565b600080600080600060a08688031215620001c957600080fd5b85516001600160401b0380821115620001e157600080fd5b620001ef89838a0162000101565b965060208801519150808211156200020657600080fd5b6200021489838a0162000101565b604089015190965091506001600160a01b03821682146200023457600080fd5b606088015160808901519295509350808211156200025157600080fd5b50620002608882890162000101565b9150509295509295909350565b600181811c908216806200028257607f821691505b602082108103620002a357634e487b7160e01b600052602260045260246000fd5b50919050565b601f821115620002f757600081815260208120601f850160051c81016020861015620002d25750805b601f850160051c820191505b81811015620002f357828155600101620002de565b5050505b505050565b81516001600160401b03811115620003185762000318620000eb565b62000330816200032984546200026d565b84620002a9565b602080601f8311600181146200036857600084156200034f5750858301515b600019600386901b1c1916600185901b178555620002f3565b600085815260208120601f198616915b82811015620003995788860151825594840194600190910190840162000378565b5085821015620003b85787850151600019600388901b60f8161c191681555b5050505050600190811b01905550565b61296780620003d86000396000f3fe608060405234801561001057600080fd5b50600436106102415760003560e01c806370a0823111610145578063c475abff116100bd578063ddf7fcb01161008c578063f2fde38b11610071578063f2fde38b146104ea578063f6a74ed7146104fd578063fca247ac1461051057600080fd5b8063ddf7fcb0146104a5578063e985e9c5146104ae57600080fd5b8063c475abff1461043c578063c87b56dd1461044f578063d6e4fa8614610462578063da8c229e1461048257600080fd5b806396e494e811610114578063a7fc7a07116100f9578063a7fc7a071461040c578063b88d4fde1461041f578063c1a287e21461043257600080fd5b806396e494e8146103e6578063a22cb465146103f957600080fd5b806370a08231146103b2578063715018a6146103c55780638da5cb5b146103cd57806395d89b41146103de57600080fd5b806328ed4f6c116101d857806347beec88116101a75780634f6ccce71161018c5780634f6ccce7146103795780636352211e1461038c5780636b8ff5741461039f57600080fd5b806347beec88146103535780634e543b261461036657600080fd5b806328ed4f6c146103075780632f745c591461031a5780633f15457f1461032d57806342842e0e1461034057600080fd5b80630e297b45116102145780630e297b45146102c357806315030633146102e457806318160ddd146102ec57806323b872dd146102f457600080fd5b806301ffc9a71461024657806306fdde031461026e578063081812fc14610283578063095ea7b3146102ae575b600080fd5b6102596102543660046123e8565b610523565b60405190151581526020015b60405180910390f35b610276610608565b604051610265919061245c565b61029661029136600461246f565b61069a565b6040516001600160a01b039091168152602001610265565b6102c16102bc36600461249d565b6106c1565b005b6102d66102d13660046124c9565b6107f7565b604051908152602001610265565b61027661080e565b6009546102d6565b6102c1610302366004612501565b61089c565b6102c1610315366004612531565b6109c4565b6102d661032836600461249d565b610b0f565b600b54610296906001600160a01b031681565b6102c161034e366004612501565b610bb7565b6102c1610361366004612561565b610bd2565b6102c1610374366004612561565b610c14565b6102d661038736600461246f565b610ca2565b61029661039a36600461246f565b610d46565b6102766103ad36600461246f565b610d69565b6102d66103c0366004612561565b610f1b565b6102c1610fb5565b6000546001600160a01b0316610296565b610276610fc9565b6102596103f436600461246f565b610fd8565b6102c161040736600461257e565b610ffe565b6102c161041a366004612561565b61100d565b6102c161042d366004612639565b61107f565b6102d66276a70081565b6102d661044a3660046126e8565b6111a2565b61027661045d36600461246f565b61134c565b6102d661047036600461246f565b6000908152600e602052604090205490565b610259610490366004612561565b600d6020526000908152604090205460ff1681565b6102d6600c5481565b6102596104bc36600461270a565b6001600160a01b03918216600090815260066020908152604080832093909416825291909152205460ff1690565b6102c16104f8366004612561565b611463565b6102c161050b366004612561565b6114f3565b6102d661051e3660046124c9565b611562565b60007fffffffff0000000000000000000000000000000000000000000000000000000082167f01ffc9a70000000000000000000000000000000000000000000000000000000014806105b657507fffffffff0000000000000000000000000000000000000000000000000000000082167f80ac58cd00000000000000000000000000000000000000000000000000000000145b8061060257507fffffffff0000000000000000000000000000000000000000000000000000000082167f28ed4f6c00000000000000000000000000000000000000000000000000000000145b92915050565b60606001805461061790612738565b80601f016020809104026020016040519081016040528092919081815260200182805461064390612738565b80156106905780601f1061066557610100808354040283529160200191610690565b820191906000526020600020905b81548152906001019060200180831161067357829003601f168201915b5050505050905090565b60006106a582611571565b506000908152600560205260409020546001600160a01b031690565b60006106cc826115d5565b9050806001600160a01b0316836001600160a01b03160361075a5760405162461bcd60e51b815260206004820152602160248201527f4552433732313a20617070726f76616c20746f2063757272656e74206f776e6560448201527f720000000000000000000000000000000000000000000000000000000000000060648201526084015b60405180910390fd5b336001600160a01b0382161480610776575061077681336104bc565b6107e85760405162461bcd60e51b815260206004820152603e60248201527f4552433732313a20617070726f76652063616c6c6572206973206e6f7420746f60448201527f6b656e206f776e6572206e6f7220617070726f76656420666f7220616c6c00006064820152608401610751565b6107f2838361163a565b505050565b600061080684848460006116c0565b949350505050565b6010805461081b90612738565b80601f016020809104026020016040519081016040528092919081815260200182805461084790612738565b80156108945780601f1061086957610100808354040283529160200191610894565b820191906000526020600020905b81548152906001019060200180831161087757829003601f168201915b505050505081565b6108a63382611902565b6109185760405162461bcd60e51b815260206004820152602760248201527f4552433732313a2063616c6c6572206973206e6f7420617070726f766564206f60448201527f72206f776e6572000000000000000000000000000000000000000000000000006064820152608401610751565b61092383838361197d565b600b54600c546040517f06ab59230000000000000000000000000000000000000000000000000000000081526004810191909152602481018390526001600160a01b038481166044830152909116906306ab5923906064016020604051808303816000875af115801561099a573d6000803e3d6000fd5b505050506040513d601f19601f820116820180604052508101906109be919061278b565b50505050565b600b54600c546040517f02571be3000000000000000000000000000000000000000000000000000000008152600481019190915230916001600160a01b0316906302571be390602401602060405180830381865afa158015610a2a573d6000803e3d6000fd5b505050506040513d601f19601f82011682018060405250810190610a4e91906127a4565b6001600160a01b031614610a6157600080fd5b610a6b3383611902565b610a7457600080fd5b600b54600c546040517f06ab59230000000000000000000000000000000000000000000000000000000081526004810191909152602481018490526001600160a01b038381166044830152909116906306ab5923906064016020604051808303816000875af1158015610aeb573d6000803e3d6000fd5b505050506040513d601f19601f820116820180604052508101906107f2919061278b565b6000610b1a83610f1b565b8210610b8e5760405162461bcd60e51b815260206004820152602b60248201527f455243373231456e756d657261626c653a206f776e657220696e646578206f7560448201527f74206f6620626f756e64730000000000000000000000000000000000000000006064820152608401610751565b506001600160a01b03919091166000908152600760209081526040808320938352929052205490565b6107f28383836040518060200160405280600081525061107f565b610bda611b6d565b600f80547fffffffffffffffffffffffff0000000000000000000000000000000000000000166001600160a01b0392909216919091179055565b610c1c611b6d565b600b54600c546040517f1896f70a00000000000000000000000000000000000000000000000000000000815260048101919091526001600160a01b03838116602483015290911690631896f70a90604401600060405180830381600087803b158015610c8757600080fd5b505af1158015610c9b573d6000803e3d6000fd5b5050505050565b6000610cad60095490565b8210610d215760405162461bcd60e51b815260206004820152602c60248201527f455243373231456e756d657261626c653a20676c6f62616c20696e646578206f60448201527f7574206f6620626f756e647300000000000000000000000000000000000000006064820152608401610751565b60098281548110610d3457610d346127c1565b90600052602060002001549050919050565b6000818152600e60205260408120544210610d6057600080fd5b610602826115d5565b600c546040516060918391600091610d8e918490602001918252602082015260400190565b60408051808303601f19018152908290528051602090910120600b547f0178b8bf000000000000000000000000000000000000000000000000000000008352600483018290529092506000916001600160a01b0390911690630178b8bf90602401602060405180830381865afa158015610e0c573d6000803e3d6000fd5b505050506040513d601f19601f82011682018060405250810190610e3091906127a4565b90506001600160a01b038116610e885760405162461bcd60e51b815260206004820152601260248201527f7265736f6c766572206e6f7420666f756e6400000000000000000000000000006044820152606401610751565b6040517f691f3431000000000000000000000000000000000000000000000000000000008152600481018390526000906001600160a01b0383169063691f343190602401600060405180830381865afa158015610ee9573d6000803e3d6000fd5b505050506040513d6000823e601f3d908101601f19168201604052610f1191908101906127f0565b9695505050505050565b60006001600160a01b038216610f995760405162461bcd60e51b815260206004820152602960248201527f4552433732313a2061646472657373207a65726f206973206e6f74206120766160448201527f6c6964206f776e657200000000000000000000000000000000000000000000006064820152608401610751565b506001600160a01b031660009081526004602052604090205490565b610fbd611b6d565b610fc76000611bc7565b565b60606002805461061790612738565b6000818152600e60205260408120544290610ff7906276a7009061288d565b1092915050565b611009338383611c2f565b5050565b611015611b6d565b6001600160a01b0381166000818152600d602052604080822080547fffffffffffffffffffffffffffffffffffffffffffffffffffffffffffffff00166001179055517f0a8bb31534c0ed46f380cb867bd5c803a189ced9a764e30b3a4991a9901d74749190a250565b6110893383611902565b6110fb5760405162461bcd60e51b815260206004820152602760248201527f4552433732313a2063616c6c6572206973206e6f7420617070726f766564206f60448201527f72206f776e6572000000000000000000000000000000000000000000000000006064820152608401610751565b61110784848484611d1b565b600b54600c546040517f06ab59230000000000000000000000000000000000000000000000000000000081526004810191909152602481018490526001600160a01b038581166044830152909116906306ab5923906064016020604051808303816000875af115801561117e573d6000803e3d6000fd5b505050506040513d601f19601f82011682018060405250810190610c9b919061278b565b600b54600c546040517f02571be3000000000000000000000000000000000000000000000000000000008152600481019190915260009130916001600160a01b03909116906302571be390602401602060405180830381865afa15801561120d573d6000803e3d6000fd5b505050506040513d601f19601f8201168201806040525081019061123191906127a4565b6001600160a01b03161461124457600080fd5b336000908152600d602052604090205460ff1661126057600080fd5b6000838152600e6020526040902054429061127f906276a7009061288d565b101561128a57600080fd5b6112976276a7008361288d565b6000848152600e60205260409020546276a700906112b690859061288d565b6112c0919061288d565b116112ca57600080fd5b6000838152600e6020526040812080548492906112e890849061288d565b90915550506000838152600e60205260409081902054905184917f9b87a00e30f1ac65d898f070f8a3488fe60517182d0a2098e1b4b93a54aa9bd69161133091815260200190565b60405180910390a250506000908152600e602052604090205490565b6000818152600360205260409020546060906001600160a01b03166113d95760405162461bcd60e51b815260206004820152602f60248201527f4552433732314d657461646174613a2055524920717565727920666f72206e6f60448201527f6e6578697374656e7420746f6b656e00000000000000000000000000000000006064820152608401610751565b600f546040517fc87b56dd000000000000000000000000000000000000000000000000000000008152600481018490526001600160a01b039091169063c87b56dd90602401600060405180830381865afa15801561143b573d6000803e3d6000fd5b505050506040513d6000823e601f3d908101601f1916820160405261060291908101906127f0565b61146b611b6d565b6001600160a01b0381166114e75760405162461bcd60e51b815260206004820152602660248201527f4f776e61626c653a206e6577206f776e657220697320746865207a65726f206160448201527f64647265737300000000000000000000000000000000000000000000000000006064820152608401610751565b6114f081611bc7565b50565b6114fb611b6d565b6001600160a01b0381166000818152600d602052604080822080547fffffffffffffffffffffffffffffffffffffffffffffffffffffffffffffff00169055517f33d83959be2573f5453b12eb9d43b3499bc57d96bd2f067ba44803c859e811139190a250565b600061080684848460016116c0565b6000818152600360205260409020546001600160a01b03166114f05760405162461bcd60e51b815260206004820152601860248201527f4552433732313a20696e76616c696420746f6b656e20494400000000000000006044820152606401610751565b6000818152600360205260408120546001600160a01b0316806106025760405162461bcd60e51b815260206004820152601860248201527f4552433732313a20696e76616c696420746f6b656e20494400000000000000006044820152606401610751565b600081815260056020526040902080547fffffffffffffffffffffffff0000000000000000000000000000000000000000166001600160a01b0384169081179091558190611687826115d5565b6001600160a01b03167f8c5be1e5ebec7d5bd14f71427d1e84f3dd0314c0f7b2291e5b200ac8c7c3b92560405160405180910390a45050565b600b54600c546040517f02571be3000000000000000000000000000000000000000000000000000000008152600481019190915260009130916001600160a01b03909116906302571be390602401602060405180830381865afa15801561172b573d6000803e3d6000fd5b505050506040513d601f19601f8201168201806040525081019061174f91906127a4565b6001600160a01b03161461176257600080fd5b336000908152600d602052604090205460ff1661177e57600080fd5b61178785610fd8565b61179057600080fd5b61179d6276a7004261288d565b6276a7006117ab854261288d565b6117b5919061288d565b116117bf57600080fd5b6117c9834261288d565b6000868152600e60209081526040808320939093556003905220546001600160a01b0316156117fb576117fb85611da4565b6118058486611e63565b81156118a857600b54600c546040517f06ab59230000000000000000000000000000000000000000000000000000000081526004810191909152602481018790526001600160a01b038681166044830152909116906306ab5923906064016020604051808303816000875af1158015611882573d6000803e3d6000fd5b505050506040513d601f19601f820116820180604052508101906118a6919061278b565b505b6001600160a01b038416857fb3d987963d01b2f68493b4bdb130988f157ea43070d4ad840fee0466ed9370d96118de864261288d565b60405190815260200160405180910390a36118f9834261288d565b95945050505050565b60008061190e83610d46565b9050806001600160a01b0316846001600160a01b031614806119495750836001600160a01b031661193e8461069a565b6001600160a01b0316145b8061080657506001600160a01b0380821660009081526006602090815260408083209388168352929052205460ff16610806565b826001600160a01b0316611990826115d5565b6001600160a01b031614611a0c5760405162461bcd60e51b815260206004820152602560248201527f4552433732313a207472616e736665722066726f6d20696e636f72726563742060448201527f6f776e65720000000000000000000000000000000000000000000000000000006064820152608401610751565b6001600160a01b038216611a875760405162461bcd60e51b8152602060048201526024808201527f4552433732313a207472616e7366657220746f20746865207a65726f2061646460448201527f72657373000000000000000000000000000000000000000000000000000000006064820152608401610751565b611a92838383611fc9565b611a9d60008261163a565b6001600160a01b0383166000908152600460205260408120805460019290611ac69084906128a0565b90915550506001600160a01b0382166000908152600460205260408120805460019290611af490849061288d565b909155505060008181526003602052604080822080547fffffffffffffffffffffffff0000000000000000000000000000000000000000166001600160a01b0386811691821790925591518493918716917fddf252ad1be2c89b69c2b068fc378daa952ba7f163c4a11628f55a4df523b3ef91a4505050565b6000546001600160a01b03163314610fc75760405162461bcd60e51b815260206004820181905260248201527f4f776e61626c653a2063616c6c6572206973206e6f7420746865206f776e65726044820152606401610751565b600080546001600160a01b038381167fffffffffffffffffffffffff0000000000000000000000000000000000000000831681178455604051919092169283917f8be0079c531659141344cd1fd0a4f28419497f9722a3daafe3b4186f6b6457e09190a35050565b816001600160a01b0316836001600160a01b031603611c905760405162461bcd60e51b815260206004820152601960248201527f4552433732313a20617070726f766520746f2063616c6c6572000000000000006044820152606401610751565b6001600160a01b0383811660008181526006602090815260408083209487168084529482529182902080547fffffffffffffffffffffffffffffffffffffffffffffffffffffffffffffff001686151590811790915591519182527f17307eab39ab6107e8899845ad3d59bd9653f200f220920489ca2b5937696c31910160405180910390a3505050565b611d2684848461197d565b611d3284848484611fd4565b6109be5760405162461bcd60e51b815260206004820152603260248201527f4552433732313a207472616e7366657220746f206e6f6e20455243373231526560448201527f63656976657220696d706c656d656e74657200000000000000000000000000006064820152608401610751565b6000611daf826115d5565b9050611dbd81600084611fc9565b611dc860008361163a565b6001600160a01b0381166000908152600460205260408120805460019290611df19084906128a0565b909155505060008281526003602052604080822080547fffffffffffffffffffffffff0000000000000000000000000000000000000000169055518391906001600160a01b038416907fddf252ad1be2c89b69c2b068fc378daa952ba7f163c4a11628f55a4df523b3ef908390a45050565b6001600160a01b038216611eb95760405162461bcd60e51b815260206004820181905260248201527f4552433732313a206d696e7420746f20746865207a65726f20616464726573736044820152606401610751565b6000818152600360205260409020546001600160a01b031615611f1e5760405162461bcd60e51b815260206004820152601c60248201527f4552433732313a20746f6b656e20616c7265616479206d696e746564000000006044820152606401610751565b611f2a60008383611fc9565b6001600160a01b0382166000908152600460205260408120805460019290611f5390849061288d565b909155505060008181526003602052604080822080547fffffffffffffffffffffffff0000000000000000000000000000000000000000166001600160a01b03861690811790915590518392907fddf252ad1be2c89b69c2b068fc378daa952ba7f163c4a11628f55a4df523b3ef908290a45050565b6107f2838383612172565b60006001600160a01b0384163b1561216a576040517f150b7a020000000000000000000000000000000000000000000000000000000081526001600160a01b0385169063150b7a02906120319033908990889088906004016128b3565b6020604051808303816000875af192505050801561206c575060408051601f3d908101601f19168201909252612069918101906128e5565b60015b61211f573d80801561209a576040519150601f19603f3d011682016040523d82523d6000602084013e61209f565b606091505b5080516000036121175760405162461bcd60e51b815260206004820152603260248201527f4552433732313a207472616e7366657220746f206e6f6e20455243373231526560448201527f63656976657220696d706c656d656e74657200000000000000000000000000006064820152608401610751565b805181602001fd5b7fffffffff00000000000000000000000000000000000000000000000000000000167f150b7a0200000000000000000000000000000000000000000000000000000000149050610806565b506001610806565b6001600160a01b0383166121cd576121c881600980546000838152600a60205260408120829055600182018355919091527f6e1540171b6c0c960b71a7020d9f60077f6af931a8bbf590da0223dacf75c7af0155565b6121f0565b816001600160a01b0316836001600160a01b0316146121f0576121f0838261222a565b6001600160a01b038216612207576107f2816122c7565b826001600160a01b0316826001600160a01b0316146107f2576107f28282612376565b6000600161223784610f1b565b61224191906128a0565b600083815260086020526040902054909150808214612294576001600160a01b03841660009081526007602090815260408083208584528252808320548484528184208190558352600890915290208190555b5060009182526008602090815260408084208490556001600160a01b039094168352600781528383209183525290812055565b6009546000906122d9906001906128a0565b6000838152600a602052604081205460098054939450909284908110612301576123016127c1565b906000526020600020015490508060098381548110612322576123226127c1565b6000918252602080832090910192909255828152600a9091526040808220849055858252812055600980548061235a5761235a612902565b6001900381819060005260206000200160009055905550505050565b600061238183610f1b565b6001600160a01b039093166000908152600760209081526040808320868452825280832085905593825260089052919091209190915550565b7fffffffff00000000000000000000000000000000000000000000000000000000811681146114f057600080fd5b6000602082840312156123fa57600080fd5b8135612405816123ba565b9392505050565b60005b8381101561242757818101518382015260200161240f565b50506000910152565b6000815180845261244881602086016020860161240c565b601f01601f19169290920160200192915050565b6020815260006124056020830184612430565b60006020828403121561248157600080fd5b5035919050565b6001600160a01b03811681146114f057600080fd5b600080604083850312156124b057600080fd5b82356124bb81612488565b946020939093013593505050565b6000806000606084860312156124de57600080fd5b8335925060208401356124f081612488565b929592945050506040919091013590565b60008060006060848603121561251657600080fd5b833561252181612488565b925060208401356124f081612488565b6000806040838503121561254457600080fd5b82359150602083013561255681612488565b809150509250929050565b60006020828403121561257357600080fd5b813561240581612488565b6000806040838503121561259157600080fd5b823561259c81612488565b91506020830135801515811461255657600080fd5b7f4e487b7100000000000000000000000000000000000000000000000000000000600052604160045260246000fd5b604051601f8201601f1916810167ffffffffffffffff81118282101715612609576126096125b1565b604052919050565b600067ffffffffffffffff82111561262b5761262b6125b1565b50601f01601f191660200190565b6000806000806080858703121561264f57600080fd5b843561265a81612488565b9350602085013561266a81612488565b925060408501359150606085013567ffffffffffffffff81111561268d57600080fd5b8501601f8101871361269e57600080fd5b80356126b16126ac82612611565b6125e0565b8181528860208385010111156126c657600080fd5b8160208401602083013760006020838301015280935050505092959194509250565b600080604083850312156126fb57600080fd5b50508035926020909101359150565b6000806040838503121561271d57600080fd5b823561272881612488565b9150602083013561255681612488565b600181811c9082168061274c57607f821691505b602082108103612785577f4e487b7100000000000000000000000000000000000000000000000000000000600052602260045260246000fd5b50919050565b60006020828403121561279d57600080fd5b5051919050565b6000602082840312156127b657600080fd5b815161240581612488565b7f4e487b7100000000000000000000000000000000000000000000000000000000600052603260045260246000fd5b60006020828403121561280257600080fd5b815167ffffffffffffffff81111561281957600080fd5b8201601f8101841361282a57600080fd5b80516128386126ac82612611565b81815285602083850101111561284d57600080fd5b6118f982602083016020860161240c565b7f4e487b7100000000000000000000000000000000000000000000000000000000600052601160045260246000fd5b808201808211156106025761060261285e565b818103818111156106025761060261285e565b60006001600160a01b03808716835280861660208401525083604083015260806060830152610f116080830184612430565b6000602082840312156128f757600080fd5b8151612405816123ba565b7f4e487b7100000000000000000000000000000000000000000000000000000000600052603160045260246000fdfea2646970667358221220f2f4bbeb0904259a5b40d6ab98ce28aeb8b890b458f01a2fef9ac8b820cd951064736f6c63430008110033",
  "devdoc": {
    "kind": "dev",
    "methods": {
      "approve(address,uint256)": {
        "details": "See {IERC721-approve}."
      },
      "balanceOf(address)": {
        "details": "See {IERC721-balanceOf}."
      },
      "getApproved(uint256)": {
        "details": "See {IERC721-getApproved}."
      },
      "isApprovedForAll(address,address)": {
        "details": "See {IERC721-isApprovedForAll}."
      },
      "name()": {
        "details": "See {IERC721Metadata-name}."
      },
      "owner()": {
        "details": "Returns the address of the current owner."
      },
      "ownerOf(uint256)": {
        "details": "Gets the owner of the specified token ID. Names become unowned      when their registration expires.",
        "params": {
          "tokenId": "uint256 ID of the token to query the owner of"
        },
        "returns": {
          "_0": "address currently marked as the owner of the given token ID"
        }
      },
      "reclaim(uint256,address)": {
        "details": "Reclaim ownership of a name in ENS, if you own it in the registrar."
      },
      "register(uint256,address,uint256)": {
        "details": "Register a name.",
        "params": {
          "duration": "Duration in seconds for the registration.",
          "id": "The token ID (keccak256 of the label).",
          "owner": "The address that should own the registration."
        }
      },
      "registerOnly(uint256,address,uint256)": {
        "details": "Register a name, without modifying the registry.",
        "params": {
          "duration": "Duration in seconds for the registration.",
          "id": "The token ID (keccak256 of the label).",
          "owner": "The address that should own the registration."
        }
      },
      "renounceOwnership()": {
        "details": "Leaves the contract without owner. It will not be possible to call `onlyOwner` functions anymore. Can only be called by the current owner. NOTE: Renouncing ownership will leave the contract without an owner, thereby removing any functionality that is only available to the owner."
      },
      "safeTransferFrom(address,address,uint256)": {
        "details": "See {IERC721-safeTransferFrom}."
      },
      "safeTransferFrom(address,address,uint256,bytes)": {
        "details": "See {IERC721-safeTransferFrom}."
      },
      "setApprovalForAll(address,bool)": {
        "details": "See {IERC721-setApprovalForAll}."
      },
      "symbol()": {
        "details": "See {IERC721Metadata-symbol}."
      },
      "tokenByIndex(uint256)": {
        "details": "See {IERC721Enumerable-tokenByIndex}."
      },
      "tokenOfOwnerByIndex(address,uint256)": {
        "details": "See {IERC721Enumerable-tokenOfOwnerByIndex}."
      },
      "tokenURI(uint256)": {
        "details": "See {IERC721Metadata-tokenURI}."
      },
      "totalSupply()": {
        "details": "See {IERC721Enumerable-totalSupply}."
      },
      "transferFrom(address,address,uint256)": {
        "details": "See {IERC721-transferFrom}."
      },
      "transferOwnership(address)": {
        "details": "Transfers ownership of the contract to a new account (`newOwner`). Can only be called by the current owner."
      }
    },
    "version": 1
  },
  "userdoc": {
    "kind": "user",
    "methods": {},
    "version": 1
  },
  "storageLayout": {
    "storage": [
      {
        "astId": 545,
        "contract": "contracts/ethregistrar/BaseRegistrarImplementation.sol:BaseRegistrarImplementation",
        "label": "_owner",
        "offset": 0,
        "slot": "0",
        "type": "t_address"
      },
      {
        "astId": 784,
        "contract": "contracts/ethregistrar/BaseRegistrarImplementation.sol:BaseRegistrarImplementation",
        "label": "_name",
        "offset": 0,
        "slot": "1",
        "type": "t_string_storage"
      },
      {
        "astId": 786,
        "contract": "contracts/ethregistrar/BaseRegistrarImplementation.sol:BaseRegistrarImplementation",
        "label": "_symbol",
        "offset": 0,
        "slot": "2",
        "type": "t_string_storage"
      },
      {
        "astId": 790,
        "contract": "contracts/ethregistrar/BaseRegistrarImplementation.sol:BaseRegistrarImplementation",
        "label": "_owners",
        "offset": 0,
        "slot": "3",
        "type": "t_mapping(t_uint256,t_address)"
      },
      {
        "astId": 794,
        "contract": "contracts/ethregistrar/BaseRegistrarImplementation.sol:BaseRegistrarImplementation",
        "label": "_balances",
        "offset": 0,
        "slot": "4",
        "type": "t_mapping(t_address,t_uint256)"
      },
      {
        "astId": 798,
        "contract": "contracts/ethregistrar/BaseRegistrarImplementation.sol:BaseRegistrarImplementation",
        "label": "_tokenApprovals",
        "offset": 0,
        "slot": "5",
        "type": "t_mapping(t_uint256,t_address)"
      },
      {
        "astId": 804,
        "contract": "contracts/ethregistrar/BaseRegistrarImplementation.sol:BaseRegistrarImplementation",
        "label": "_operatorApprovals",
        "offset": 0,
        "slot": "6",
        "type": "t_mapping(t_address,t_mapping(t_address,t_bool))"
      },
      {
        "astId": 1804,
        "contract": "contracts/ethregistrar/BaseRegistrarImplementation.sol:BaseRegistrarImplementation",
        "label": "_ownedTokens",
        "offset": 0,
        "slot": "7",
        "type": "t_mapping(t_address,t_mapping(t_uint256,t_uint256))"
      },
      {
        "astId": 1808,
        "contract": "contracts/ethregistrar/BaseRegistrarImplementation.sol:BaseRegistrarImplementation",
        "label": "_ownedTokensIndex",
        "offset": 0,
        "slot": "8",
        "type": "t_mapping(t_uint256,t_uint256)"
      },
      {
        "astId": 1811,
        "contract": "contracts/ethregistrar/BaseRegistrarImplementation.sol:BaseRegistrarImplementation",
        "label": "_allTokens",
        "offset": 0,
        "slot": "9",
        "type": "t_array(t_uint256)dyn_storage"
      },
      {
        "astId": 1815,
        "contract": "contracts/ethregistrar/BaseRegistrarImplementation.sol:BaseRegistrarImplementation",
        "label": "_allTokensIndex",
        "offset": 0,
        "slot": "10",
        "type": "t_mapping(t_uint256,t_uint256)"
      },
      {
        "astId": 11721,
        "contract": "contracts/ethregistrar/BaseRegistrarImplementation.sol:BaseRegistrarImplementation",
        "label": "ens",
        "offset": 0,
        "slot": "11",
        "type": "t_contract(WENS)20444"
      },
      {
        "astId": 11723,
        "contract": "contracts/ethregistrar/BaseRegistrarImplementation.sol:BaseRegistrarImplementation",
        "label": "baseNode",
        "offset": 0,
        "slot": "12",
        "type": "t_bytes32"
      },
      {
        "astId": 11727,
        "contract": "contracts/ethregistrar/BaseRegistrarImplementation.sol:BaseRegistrarImplementation",
        "label": "controllers",
        "offset": 0,
        "slot": "13",
        "type": "t_mapping(t_address,t_bool)"
      },
      {
        "astId": 11807,
        "contract": "contracts/ethregistrar/BaseRegistrarImplementation.sol:BaseRegistrarImplementation",
        "label": "expiries",
        "offset": 0,
        "slot": "14",
        "type": "t_mapping(t_uint256,t_uint256)"
      },
      {
        "astId": 11866,
        "contract": "contracts/ethregistrar/BaseRegistrarImplementation.sol:BaseRegistrarImplementation",
        "label": "tokenUriBuilder",
        "offset": 0,
        "slot": "15",
        "type": "t_contract(TokenURIBuilder)17279"
      },
      {
        "astId": 11868,
        "contract": "contracts/ethregistrar/BaseRegistrarImplementation.sol:BaseRegistrarImplementation",
        "label": "baseName",
        "offset": 0,
        "slot": "16",
        "type": "t_string_storage"
      }
    ],
    "types": {
      "t_address": {
        "encoding": "inplace",
        "label": "address",
        "numberOfBytes": "20"
      },
      "t_array(t_uint256)dyn_storage": {
        "base": "t_uint256",
        "encoding": "dynamic_array",
        "label": "uint256[]",
        "numberOfBytes": "32"
      },
      "t_bool": {
        "encoding": "inplace",
        "label": "bool",
        "numberOfBytes": "1"
      },
      "t_bytes32": {
        "encoding": "inplace",
        "label": "bytes32",
        "numberOfBytes": "32"
      },
      "t_contract(TokenURIBuilder)17279": {
        "encoding": "inplace",
        "label": "contract TokenURIBuilder",
        "numberOfBytes": "20"
      },
      "t_contract(WENS)20444": {
        "encoding": "inplace",
        "label": "contract WENS",
        "numberOfBytes": "20"
      },
      "t_mapping(t_address,t_bool)": {
        "encoding": "mapping",
        "key": "t_address",
        "label": "mapping(address => bool)",
        "numberOfBytes": "32",
        "value": "t_bool"
      },
      "t_mapping(t_address,t_mapping(t_address,t_bool))": {
        "encoding": "mapping",
        "key": "t_address",
        "label": "mapping(address => mapping(address => bool))",
        "numberOfBytes": "32",
        "value": "t_mapping(t_address,t_bool)"
      },
      "t_mapping(t_address,t_mapping(t_uint256,t_uint256))": {
        "encoding": "mapping",
        "key": "t_address",
        "label": "mapping(address => mapping(uint256 => uint256))",
        "numberOfBytes": "32",
        "value": "t_mapping(t_uint256,t_uint256)"
      },
      "t_mapping(t_address,t_uint256)": {
        "encoding": "mapping",
        "key": "t_address",
        "label": "mapping(address => uint256)",
        "numberOfBytes": "32",
        "value": "t_uint256"
      },
      "t_mapping(t_uint256,t_address)": {
        "encoding": "mapping",
        "key": "t_uint256",
        "label": "mapping(uint256 => address)",
        "numberOfBytes": "32",
        "value": "t_address"
      },
      "t_mapping(t_uint256,t_uint256)": {
        "encoding": "mapping",
        "key": "t_uint256",
        "label": "mapping(uint256 => uint256)",
        "numberOfBytes": "32",
        "value": "t_uint256"
      },
      "t_string_storage": {
        "encoding": "bytes",
        "label": "string",
        "numberOfBytes": "32"
      },
      "t_uint256": {
        "encoding": "inplace",
        "label": "uint256",
        "numberOfBytes": "32"
      }
    }
  }
}