{
  "address": "0x82Dc2F0317F2908f2f2a6055A68C5a17E437B53e",
  "abi": [
    {
      "inputs": [
        {
          "internalType": "contract WENS",
          "name": "ensAddr",
          "type": "address"
        },
        {
          "internalType": "contract NameResolver",
          "name": "resolverAddr",
          "type": "address"
        }
      ],
      "stateMutability": "nonpayable",
      "type": "constructor"
    },
    {
      "anonymous": false,
      "inputs": [
        {
          "indexed": true,
          "internalType": "address",
          "name": "controller",
          "type": "address"
        },
        {
          "indexed": false,
          "internalType": "bool",
          "name": "enabled",
          "type": "bool"
        }
      ],
      "name": "ControllerChanged",
      "type": "event"
    },
    {
      "anonymous": false,
      "inputs": [
        {
          "indexed": true,
          "internalType": "address",
          "name": "previousOwner",
          "type": "address"
        },
        {
          "indexed": true,
          "internalType": "address",
          "name": "newOwner",
          "type": "address"
        }
      ],
      "name": "OwnershipTransferred",
      "type": "event"
    },
    {
      "anonymous": false,
      "inputs": [
        {
          "indexed": true,
          "internalType": "address",
          "name": "addr",
          "type": "address"
        },
        {
          "indexed": true,
          "internalType": "bytes32",
          "name": "node",
          "type": "bytes32"
        }
      ],
      "name": "ReverseClaimed",
      "type": "event"
    },
    {
      "inputs": [
        {
          "internalType": "address",
          "name": "owner",
          "type": "address"
        }
      ],
      "name": "claim",
      "outputs": [
        {
          "internalType": "bytes32",
          "name": "",
          "type": "bytes32"
        }
      ],
      "stateMutability": "nonpayable",
      "type": "function"
    },
    {
      "inputs": [
        {
          "internalType": "address",
          "name": "addr",
          "type": "address"
        },
        {
          "internalType": "address",
          "name": "owner",
          "type": "address"
        }
      ],
      "name": "claimForAddr",
      "outputs": [
        {
          "internalType": "bytes32",
          "name": "",
          "type": "bytes32"
        }
      ],
      "stateMutability": "nonpayable",
      "type": "function"
    },
    {
      "inputs": [
        {
          "internalType": "address",
          "name": "owner",
          "type": "address"
        },
        {
          "internalType": "address",
          "name": "resolver",
          "type": "address"
        }
      ],
      "name": "claimWithResolver",
      "outputs": [
        {
          "internalType": "bytes32",
          "name": "",
          "type": "bytes32"
        }
      ],
      "stateMutability": "nonpayable",
      "type": "function"
    },
    {
      "inputs": [
        {
          "internalType": "address",
          "name": "addr",
          "type": "address"
        },
        {
          "internalType": "address",
          "name": "owner",
          "type": "address"
        },
        {
          "internalType": "address",
          "name": "resolver",
          "type": "address"
        }
      ],
      "name": "claimWithResolverForAddr",
      "outputs": [
        {
          "internalType": "bytes32",
          "name": "",
          "type": "bytes32"
        }
      ],
      "stateMutability": "nonpayable",
      "type": "function"
    },
    {
      "inputs": [
        {
          "internalType": "address",
          "name": "",
          "type": "address"
        }
      ],
      "name": "controllers",
      "outputs": [
        {
          "internalType": "bool",
          "name": "",
          "type": "bool"
        }
      ],
      "stateMutability": "view",
      "type": "function"
    },
    {
      "inputs": [],
      "name": "defaultResolver",
      "outputs": [
        {
          "internalType": "contract NameResolver",
          "name": "",
          "type": "address"
        }
      ],
      "stateMutability": "view",
      "type": "function"
    },
    {
      "inputs": [],
      "name": "ens",
      "outputs": [
        {
          "internalType": "contract WENS",
          "name": "",
          "type": "address"
        }
      ],
      "stateMutability": "view",
      "type": "function"
    },
    {
      "inputs": [
        {
          "internalType": "address",
          "name": "addr",
          "type": "address"
        }
      ],
      "name": "node",
      "outputs": [
        {
          "internalType": "bytes32",
          "name": "",
          "type": "bytes32"
        }
      ],
      "stateMutability": "pure",
      "type": "function"
    },
    {
      "inputs": [],
      "name": "owner",
      "outputs": [
        {
          "internalType": "address",
          "name": "",
          "type": "address"
        }
      ],
      "stateMutability": "view",
      "type": "function"
    },
    {
      "inputs": [],
      "name": "renounceOwnership",
      "outputs": [],
      "stateMutability": "nonpayable",
      "type": "function"
    },
    {
      "inputs": [
        {
          "internalType": "address",
          "name": "controller",
          "type": "address"
        },
        {
          "internalType": "bool",
          "name": "enabled",
          "type": "bool"
        }
      ],
      "name": "setController",
      "outputs": [],
      "stateMutability": "nonpayable",
      "type": "function"
    },
    {
      "inputs": [
        {
          "internalType": "string",
          "name": "name",
          "type": "string"
        }
      ],
      "name": "setName",
      "outputs": [
        {
          "internalType": "bytes32",
          "name": "",
          "type": "bytes32"
        }
      ],
      "stateMutability": "nonpayable",
      "type": "function"
    },
    {
      "inputs": [
        {
          "internalType": "address",
          "name": "addr",
          "type": "address"
        },
        {
          "internalType": "address",
          "name": "owner",
          "type": "address"
        },
        {
          "internalType": "string",
          "name": "name",
          "type": "string"
        }
      ],
      "name": "setNameForAddr",
      "outputs": [
        {
          "internalType": "bytes32",
          "name": "",
          "type": "bytes32"
        }
      ],
      "stateMutability": "nonpayable",
      "type": "function"
    },
    {
      "inputs": [
        {
          "internalType": "address",
          "name": "newOwner",
          "type": "address"
        }
      ],
      "name": "transferOwnership",
      "outputs": [],
      "stateMutability": "nonpayable",
      "type": "function"
    }
  ],
  "transactionHash": "0xf059bcf66531efe484ba353299b79b935bd62bf7a4d6e2c1d956a05e966cac0f",
  "args": [
    "0x3BfE135231099832B1379Eac281aB44d33914eb6",
    "0x8660ce5bAD8c83fe4edd779560BA2DA5C6BDA61a"
  ],
  "solcInputHash": "902db3b48db8cf37b48a2125e6b3980f",
  "bytecode": "0x60806040523480156200001157600080fd5b506040516200166e3803806200166e8339810160408190526200003491620001e4565b6200003f336200017b565b600280546001600160a01b038481166001600160a01b0319928316811790935560038054918516919092161790556040516302571be360e01b81527f91d1777781884d03a6757a803996e38de2a42967fb37eeaca72729271025a9e26004820152600091906302571be390602401602060405180830381865afa158015620000cb573d6000803e3d6000fd5b505050506040513d601f19601f82011682018060405250810190620000f1919062000223565b90506001600160a01b038116156200017257604051630f41a04d60e11b81523360048201526001600160a01b03821690631e83409a906024016020604051808303816000875af11580156200014a573d6000803e3d6000fd5b505050506040513d601f19601f820116820180604052508101906200017091906200024a565b505b50505062000264565b600080546001600160a01b038381166001600160a01b0319831681178455604051919092169283917f8be0079c531659141344cd1fd0a4f28419497f9722a3daafe3b4186f6b6457e09190a35050565b6001600160a01b0381168114620001e157600080fd5b50565b60008060408385031215620001f857600080fd5b82516200020581620001cb565b60208401519092506200021881620001cb565b809150509250929050565b6000602082840312156200023657600080fd5b81516200024381620001cb565b9392505050565b6000602082840312156200025d57600080fd5b5051919050565b6113fa80620002746000396000f3fe608060405234801561001057600080fd5b50600436106100ea5760003560e01c80638d9522b81161008c578063c47f002711610066578063c47f002714610201578063da8c229e14610214578063e0dba60f14610247578063f2fde38b1461025a57600080fd5b80638d9522b8146101bd5780638da5cb5b146101d0578063bffbe61c146101ee57600080fd5b80633f15457f116100c85780633f15457f1461013b5780634709bf4b14610180578063715018a614610193578063828eab0e1461019d57600080fd5b80630ccc4a7f146100ef5780630f5a5466146101155780631e83409a14610128575b600080fd5b6101026100fd3660046110af565b61026d565b6040519081526020015b60405180910390f35b6101026101233660046110fa565b61041d565b610102610136366004611133565b610431565b60025461015b9073ffffffffffffffffffffffffffffffffffffffff1681565b60405173ffffffffffffffffffffffffffffffffffffffff909116815260200161010c565b61010261018e3660046110fa565b610445565b61019b6105f0565b005b60035461015b9073ffffffffffffffffffffffffffffffffffffffff1681565b6101026101cb36600461122a565b610604565b60005473ffffffffffffffffffffffffffffffffffffffff1661015b565b6101026101fc366004611133565b61093e565b61010261020f36600461128c565b610999565b610237610222366004611133565b60016020526000908152604090205460ff1681565b604051901515815260200161010c565b61019b6102553660046112cf565b610a56565b61019b610268366004611133565b610ae8565b60008373ffffffffffffffffffffffffffffffffffffffff81163314806102a357503360009081526001602052604090205460ff165b8061034357506002546040517fe985e9c500000000000000000000000000000000000000000000000000000000815273ffffffffffffffffffffffffffffffffffffffff83811660048301523360248301529091169063e985e9c590604401602060405180830381865afa15801561031f573d6000803e3d6000fd5b505050506040513d601f19601f8201168201806040525081019061034391906112fd565b80610352575061035281610b9f565b610409576040517f08c379a000000000000000000000000000000000000000000000000000000000815260206004820152604960248201527f43616c6c6572206973206e6f74206120636f6e74726f6c6c6572206f7220617560448201527f74686f72697365642062792061646472657373206f722074686520616464726560648201527f737320697473656c660000000000000000000000000000000000000000000000608482015260a4015b60405180910390fd5b610414858585610c50565b95945050505050565b600061042a338484610c50565b9392505050565b600061043f33836000610c50565b92915050565b60008273ffffffffffffffffffffffffffffffffffffffff811633148061047b57503360009081526001602052604090205460ff165b8061051b57506002546040517fe985e9c500000000000000000000000000000000000000000000000000000000815273ffffffffffffffffffffffffffffffffffffffff83811660048301523360248301529091169063e985e9c590604401602060405180830381865afa1580156104f7573d6000803e3d6000fd5b505050506040513d601f19601f8201168201806040525081019061051b91906112fd565b8061052a575061052a81610b9f565b6105dc576040517f08c379a000000000000000000000000000000000000000000000000000000000815260206004820152604960248201527f43616c6c6572206973206e6f74206120636f6e74726f6c6c6572206f7220617560448201527f74686f72697365642062792061646472657373206f722074686520616464726560648201527f737320697473656c660000000000000000000000000000000000000000000000608482015260a401610400565b6105e884846000610c50565b949350505050565b6105f8610edb565b6106026000610f5c565b565b60008373ffffffffffffffffffffffffffffffffffffffff811633148061063a57503360009081526001602052604090205460ff165b806106da57506002546040517fe985e9c500000000000000000000000000000000000000000000000000000000815273ffffffffffffffffffffffffffffffffffffffff83811660048301523360248301529091169063e985e9c590604401602060405180830381865afa1580156106b6573d6000803e3d6000fd5b505050506040513d601f19601f820116820180604052508101906106da91906112fd565b806106e957506106e981610b9f565b61079b576040517f08c379a000000000000000000000000000000000000000000000000000000000815260206004820152604960248201527f43616c6c6572206973206e6f74206120636f6e74726f6c6c6572206f7220617560448201527f74686f72697365642062792061646472657373206f722074686520616464726560648201527f737320697473656c660000000000000000000000000000000000000000000000608482015260a401610400565b6003546000906107c4908790309073ffffffffffffffffffffffffffffffffffffffff16610c50565b6003546040517f7737221300000000000000000000000000000000000000000000000000000000815291925073ffffffffffffffffffffffffffffffffffffffff169063773722139061081d908490889060040161131a565b600060405180830381600087803b15801561083757600080fd5b505af115801561084b573d6000803e3d6000fd5b505060025473ffffffffffffffffffffffffffffffffffffffff1691506306ab592390507f91d1777781884d03a6757a803996e38de2a42967fb37eeaca72729271025a9e261089989610fd1565b6040517fffffffff0000000000000000000000000000000000000000000000000000000060e085901b1681526004810192909252602482015273ffffffffffffffffffffffffffffffffffffffff881660448201526064016020604051808303816000875af1158015610910573d6000803e3d6000fd5b505050506040513d601f19601f82011682018060405250810190610934919061138e565b5095945050505050565b60007f91d1777781884d03a6757a803996e38de2a42967fb37eeaca72729271025a9e261096a83610fd1565b604080516020810193909352820152606001604051602081830303815290604052805190602001209050919050565b60035460009081906109c4903390309073ffffffffffffffffffffffffffffffffffffffff16610c50565b6003546040517f7737221300000000000000000000000000000000000000000000000000000000815291925073ffffffffffffffffffffffffffffffffffffffff1690637737221390610a1d908490879060040161131a565b600060405180830381600087803b158015610a3757600080fd5b505af1158015610a4b573d6000803e3d6000fd5b509295945050505050565b610a5e610edb565b73ffffffffffffffffffffffffffffffffffffffff821660008181526001602090815260409182902080547fffffffffffffffffffffffffffffffffffffffffffffffffffffffffffffff001685151590811790915591519182527f4c97694570a07277810af7e5669ffd5f6a2d6b74b6e9a274b8b870fd5114cf87910160405180910390a25050565b610af0610edb565b73ffffffffffffffffffffffffffffffffffffffff8116610b93576040517f08c379a000000000000000000000000000000000000000000000000000000000815260206004820152602660248201527f4f776e61626c653a206e6577206f776e657220697320746865207a65726f206160448201527f64647265737300000000000000000000000000000000000000000000000000006064820152608401610400565b610b9c81610f5c565b50565b60008173ffffffffffffffffffffffffffffffffffffffff16638da5cb5b6040518163ffffffff1660e01b8152600401602060405180830381865afa925050508015610c26575060408051601f3d9081017fffffffffffffffffffffffffffffffffffffffffffffffffffffffffffffffe0168201909252610c23918101906113a7565b60015b610c3257506000919050565b73ffffffffffffffffffffffffffffffffffffffff16331492915050565b600080610c5c85610fd1565b604080517f91d1777781884d03a6757a803996e38de2a42967fb37eeaca72729271025a9e26020820152908101829052909150600090606001604080518083037fffffffffffffffffffffffffffffffffffffffffffffffffffffffffffffffe00181529082905280516020909101206002547f0178b8bf0000000000000000000000000000000000000000000000000000000083526004830182905290925060009173ffffffffffffffffffffffffffffffffffffffff90911690630178b8bf90602401602060405180830381865afa158015610d3e573d6000803e3d6000fd5b505050506040513d601f19601f82011682018060405250810190610d6291906113a7565b9050600073ffffffffffffffffffffffffffffffffffffffff861615801590610db757508173ffffffffffffffffffffffffffffffffffffffff168673ffffffffffffffffffffffffffffffffffffffff1614155b9050600081610dc65782610dc8565b865b6002546040517f5ef2c7f00000000000000000000000000000000000000000000000000000000081527f91d1777781884d03a6757a803996e38de2a42967fb37eeaca72729271025a9e260048201526024810188905273ffffffffffffffffffffffffffffffffffffffff8b81166044830152808416606483015260006084830152929350911690635ef2c7f09060a401600060405180830381600087803b158015610e7357600080fd5b505af1158015610e87573d6000803e3d6000fd5b505060405186925073ffffffffffffffffffffffffffffffffffffffff8c1691507f6ada868dd3058cf77a48a74489fd7963688e5464b2b0fa957ace976243270e9290600090a35091979650505050505050565b60005473ffffffffffffffffffffffffffffffffffffffff163314610602576040517f08c379a000000000000000000000000000000000000000000000000000000000815260206004820181905260248201527f4f776e61626c653a2063616c6c6572206973206e6f7420746865206f776e65726044820152606401610400565b6000805473ffffffffffffffffffffffffffffffffffffffff8381167fffffffffffffffffffffffff0000000000000000000000000000000000000000831681178455604051919092169283917f8be0079c531659141344cd1fd0a4f28419497f9722a3daafe3b4186f6b6457e09190a35050565b600060285b8015611081577fffffffffffffffffffffffffffffffffffffffffffffffffffffffffffffffff017f3031323334353637383961626364656600000000000000000000000000000000600f84161a81536010909204917fffffffffffffffffffffffffffffffffffffffffffffffffffffffffffffffff017f3031323334353637383961626364656600000000000000000000000000000000600f84161a8153601083049250610fd6565b50506028600020919050565b73ffffffffffffffffffffffffffffffffffffffff81168114610b9c57600080fd5b6000806000606084860312156110c457600080fd5b83356110cf8161108d565b925060208401356110df8161108d565b915060408401356110ef8161108d565b809150509250925092565b6000806040838503121561110d57600080fd5b82356111188161108d565b915060208301356111288161108d565b809150509250929050565b60006020828403121561114557600080fd5b813561042a8161108d565b7f4e487b7100000000000000000000000000000000000000000000000000000000600052604160045260246000fd5b600082601f83011261119057600080fd5b813567ffffffffffffffff808211156111ab576111ab611150565b604051601f83017fffffffffffffffffffffffffffffffffffffffffffffffffffffffffffffffe0908116603f011681019082821181831017156111f1576111f1611150565b8160405283815286602085880101111561120a57600080fd5b836020870160208301376000602085830101528094505050505092915050565b60008060006060848603121561123f57600080fd5b833561124a8161108d565b9250602084013561125a8161108d565b9150604084013567ffffffffffffffff81111561127657600080fd5b6112828682870161117f565b9150509250925092565b60006020828403121561129e57600080fd5b813567ffffffffffffffff8111156112b557600080fd5b6105e88482850161117f565b8015158114610b9c57600080fd5b600080604083850312156112e257600080fd5b82356112ed8161108d565b91506020830135611128816112c1565b60006020828403121561130f57600080fd5b815161042a816112c1565b82815260006020604081840152835180604085015260005b8181101561134e57858101830151858201606001528201611332565b5060006060828601015260607fffffffffffffffffffffffffffffffffffffffffffffffffffffffffffffffe0601f830116850101925050509392505050565b6000602082840312156113a057600080fd5b5051919050565b6000602082840312156113b957600080fd5b815161042a8161108d56fea26469706673582212207095adb03e750696375441d25d12c4bf43ce317749193d42c72defc479a0d40a64736f6c63430008110033",
  "devdoc": {
    "kind": "dev",
    "methods": {
      "claim(address)": {
        "details": "Transfers ownership of the reverse ENS record associated with the      calling account.",
        "params": {
          "owner": "The address to set as the owner of the reverse record in ENS."
        },
        "returns": {
          "_0": "The ENS node hash of the reverse record."
        }
      },
      "claimForAddr(address,address)": {
        "details": "Transfers ownership of the reverse ENS record associated with the      calling account.",
        "params": {
          "addr": "The reverse record to set",
          "owner": "The address to set as the owner of the reverse record in ENS."
        },
        "returns": {
          "_0": "The ENS node hash of the reverse record."
        }
      },
      "claimWithResolver(address,address)": {
        "details": "Transfers ownership of the reverse ENS record associated with the      calling account.",
        "params": {
          "owner": "The address to set as the owner of the reverse record in ENS.",
          "resolver": "The address of the resolver to set; 0 to leave unchanged."
        },
        "returns": {
          "_0": "The ENS node hash of the reverse record."
        }
      },
      "claimWithResolverForAddr(address,address,address)": {
        "details": "Transfers ownership of the reverse ENS record specified with the      address provided",
        "params": {
          "addr": "The reverse record to set",
          "owner": "The address to set as the owner of the reverse record in ENS.",
          "resolver": "The address of the resolver to set; 0 to leave unchanged."
        },
        "returns": {
          "_0": "The ENS node hash of the reverse record."
        }
      },
      "constructor": {
        "details": "Constructor",
        "params": {
          "ensAddr": "The address of the WENS registry.",
          "resolverAddr": "The address of the default reverse resolver."
        }
      },
      "node(address)": {
        "details": "Returns the node hash for a given account's reverse records.",
        "params": {
          "addr": "The address to hash"
        },
        "returns": {
          "_0": "The ENS node hash."
        }
      },
      "owner()": {
        "details": "Returns the address of the current owner."
      },
      "renounceOwnership()": {
        "details": "Leaves the contract without owner. It will not be possible to call `onlyOwner` functions anymore. Can only be called by the current owner. NOTE: Renouncing ownership will leave the contract without an owner, thereby removing any functionality that is only available to the owner."
      },
      "setName(string)": {
        "details": "Sets the `name()` record for the reverse ENS record associated with the calling account. First updates the resolver to the default reverse resolver if necessary.",
        "params": {
          "name": "The name to set for this address."
        },
        "returns": {
          "_0": "The ENS node hash of the reverse record."
        }
      },
      "setNameForAddr(address,address,string)": {
        "details": "Sets the `name()` record for the reverse ENS record associated with the account provided. First updates the resolver to the default reverse resolver if necessary. Only callable by controllers and authorised users",
        "params": {
          "addr": "The reverse record to set",
          "name": "The name to set for this address.",
          "owner": "The owner of the reverse node"
        },
        "returns": {
          "_0": "The ENS node hash of the reverse record."
        }
      },
      "transferOwnership(address)": {
        "details": "Transfers ownership of the contract to a new account (`newOwner`). Can only be called by the current owner."
      }
    },
    "version": 1
  },
  "userdoc": {
    "kind": "user",
    "methods": {},
    "version": 1
  },
  "storageLayout": {
    "storage": [
      {
        "astId": 545,
        "contract": "contracts/registry/ReverseRegistrar.sol:ReverseRegistrar",
        "label": "_owner",
        "offset": 0,
        "slot": "0",
        "type": "t_address"
      },
      {
        "astId": 22614,
        "contract": "contracts/registry/ReverseRegistrar.sol:ReverseRegistrar",
        "label": "controllers",
        "offset": 0,
        "slot": "1",
        "type": "t_mapping(t_address,t_bool)"
      },
      {
        "astId": 19926,
        "contract": "contracts/registry/ReverseRegistrar.sol:ReverseRegistrar",
        "label": "ens",
        "offset": 0,
        "slot": "2",
        "type": "t_contract(WENS)20444"
      },
      {
        "astId": 19929,
        "contract": "contracts/registry/ReverseRegistrar.sol:ReverseRegistrar",
        "label": "defaultResolver",
        "offset": 0,
        "slot": "3",
        "type": "t_contract(NameResolver)19913"
      }
    ],
    "types": {
      "t_address": {
        "encoding": "inplace",
        "label": "address",
        "numberOfBytes": "20"
      },
      "t_bool": {
        "encoding": "inplace",
        "label": "bool",
        "numberOfBytes": "1"
      },
      "t_contract(NameResolver)19913": {
        "encoding": "inplace",
        "label": "contract NameResolver",
        "numberOfBytes": "20"
      },
      "t_contract(WENS)20444": {
        "encoding": "inplace",
        "label": "contract WENS",
        "numberOfBytes": "20"
      },
      "t_mapping(t_address,t_bool)": {
        "encoding": "mapping",
        "key": "t_address",
        "label": "mapping(address => bool)",
        "numberOfBytes": "32",
        "value": "t_bool"
      }
    }
  }
}